0400346820200907000000000000000000000000000000000000000000000000000000000000000000000000000000000000000000000000000000000000000000000000000000000000000000000000000000000000000000000000000000000000000000000000000000000000000000000000000000000000000000000000000000000000000000000000
500113446   41030996000B00180247239408200202008310000009000020200831000000910002020083100000091000000000000000000000000113446   41030996FACTURA:B0018-02472394 PERIODO:08/2020  FAC CUOTA 08/2071409000020082472394091000310910003120GABRIEL ALEJANDRO JULIAN                           
500113446   41030996000B00180245204107200202007310000009100020200731000000920002020073100000092000000000000000000000000113446   41030996FACTURA:B0018-02452041 PERIODO:07/2020  FAC CUOTA 07/2071409100020072452041092000310920003141GABRIEL ALEJANDRO JULIAN                           
500113446   41030996000B00180111111104200202007310000009100020200731000000920002020073100000092000000000000000000000000113446   41030996FACTURA:B0018-02452041 PERIODO:07/2020  FAC CUOTA 07/2071409100020072452041092000310920003141GABRIEL ALEJANDRO JULIAN                           
500113446   41030996000B00180222222205200202007310000009100020200731000000920002020073100000092000000000000000000000000113446   41030996FACTURA:B0018-02452041 PERIODO:07/2020  FAC CUOTA 07/2071409100020072452041092000310920003141GABRIEL ALEJANDRO JULIAN                           
500113446   41030996000B00180333333306200202007310000009100020200731000000920002020073100000092000000000000000000000000113446   41030996FACTURA:B0018-02452041 PERIODO:07/2020  FAC CUOTA 07/2071409100020072452041092000310920003141GABRIEL ALEJANDRO JULIAN                           
500113446   41030996000B00180111111104200202007310000009100020200731000000920002020073100000092000000000000000000000000113446   41030996FACTURA:B0018-02452041 PERIODO:07/2020  FAC CUOTA 07/2071409100020072452041092000310920003141GABRIEL ALEJANDRO JULIAN                           
9400346820200907007267500000000893981489600000000000000000000000000000000000000000000000000000000000000000000000000000000000000000000000000000000000000000000000000000000000000000000000000000000000000000000000000000000000000000000000000000000000000000000000000000000000000000000000